{
    "_format": "hh-sol-artifact-1",
    "contractName": "NftlsToken",
    "sourceName": "contracts/NftlsToken.sol",
    "abi": [
        {
            "inputs": [
                {
                    "internalType": "string",
                    "name": "baseUri",
                    "type": "string"
                },
                {
                    "internalType": "address",
                    "name": "parent",
                    "type": "address"
                },
                {
                    "internalType": "bytes32",
                    "name": "certificate",
                    "type": "bytes32"
                },
                {
                    "internalType": "bytes",
                    "name": "signature",
                    "type": "bytes"
                }
            ],
            "stateMutability": "nonpayable",
            "type": "constructor"
        },
        {
            "anonymous": false,
            "inputs": [
                {
                    "indexed": true,
                    "internalType": "address",
                    "name": "owner",
                    "type": "address"
                },
                {
                    "indexed": true,
                    "internalType": "address",
                    "name": "approved",
                    "type": "address"
                },
                {
                    "indexed": true,
                    "internalType": "uint256",
                    "name": "tokenId",
                    "type": "uint256"
                }
            ],
            "name": "Approval",
            "type": "event"
        },
        {
            "anonymous": false,
            "inputs": [
                {
                    "indexed": true,
                    "internalType": "address",
                    "name": "owner",
                    "type": "address"
                },
                {
                    "indexed": true,
                    "internalType": "address",
                    "name": "operator",
                    "type": "address"
                },
                {
                    "indexed": false,
                    "internalType": "bool",
                    "name": "approved",
                    "type": "bool"
                }
            ],
            "name": "ApprovalForAll",
            "type": "event"
        },
        {
            "anonymous": false,
            "inputs": [
                {
                    "indexed": true,
                    "internalType": "address",
                    "name": "previousOwner",
                    "type": "address"
                },
                {
                    "indexed": true,
                    "internalType": "address",
                    "name": "newOwner",
                    "type": "address"
                }
            ],
            "name": "OwnershipTransferred",
            "type": "event"
        },
        {
            "anonymous": false,
            "inputs": [
                {
                    "indexed": true,
                    "internalType": "address",
                    "name": "from",
                    "type": "address"
                },
                {
                    "indexed": true,
                    "internalType": "address",
                    "name": "to",
                    "type": "address"
                },
                {
                    "indexed": true,
                    "internalType": "uint256",
                    "name": "tokenId",
                    "type": "uint256"
                }
            ],
            "name": "Transfer",
            "type": "event"
        },
        {
            "inputs": [],
            "name": "MINT_PRICE",
            "outputs": [
                {
                    "internalType": "uint256",
                    "name": "",
                    "type": "uint256"
                }
            ],
            "stateMutability": "view",
            "type": "function"
        },
        {
            "inputs": [],
            "name": "REMINT_PRICE",
            "outputs": [
                {
                    "internalType": "uint256",
                    "name": "",
                    "type": "uint256"
                }
            ],
            "stateMutability": "view",
            "type": "function"
        },
        {
            "inputs": [
                {
                    "internalType": "address",
                    "name": "to",
                    "type": "address"
                },
                {
                    "internalType": "uint256",
                    "name": "tokenId",
                    "type": "uint256"
                }
            ],
            "name": "approve",
            "outputs": [],
            "stateMutability": "nonpayable",
            "type": "function"
        },
        {
            "inputs": [],
            "name": "approve",
            "outputs": [],
            "stateMutability": "pure",
            "type": "function"
        },
        {
            "inputs": [
                {
                    "internalType": "address",
                    "name": "owner",
                    "type": "address"
                }
            ],
            "name": "balanceOf",
            "outputs": [
                {
                    "internalType": "uint256",
                    "name": "",
                    "type": "uint256"
                }
            ],
            "stateMutability": "view",
            "type": "function"
        },
        {
            "inputs": [],
            "name": "baseTokenUri",
            "outputs": [
                {
                    "internalType": "string",
                    "name": "",
                    "type": "string"
                }
            ],
            "stateMutability": "view",
            "type": "function"
        },
        {
            "inputs": [
                {
                    "internalType": "uint256",
                    "name": "tokenId",
                    "type": "uint256"
                }
            ],
            "name": "getApproved",
            "outputs": [
                {
                    "internalType": "address",
                    "name": "",
                    "type": "address"
                }
            ],
            "stateMutability": "view",
            "type": "function"
        },
        {
            "inputs": [
                {
                    "internalType": "uint256",
                    "name": "path",
                    "type": "uint256"
                },
                {
                    "internalType": "bool",
                    "name": "getLatest",
                    "type": "bool"
                }
            ],
            "name": "getCertificate",
            "outputs": [
                {
                    "internalType": "bytes32",
                    "name": "certificate",
                    "type": "bytes32"
                },
                {
                    "internalType": "uint256",
                    "name": "finalPath",
                    "type": "uint256"
                },
                {
                    "internalType": "uint256",
                    "name": "revokeTime",
                    "type": "uint256"
                },
                {
                    "internalType": "bytes",
                    "name": "signature",
                    "type": "bytes"
                }
            ],
            "stateMutability": "view",
            "type": "function"
        },
        {
            "inputs": [
                {
                    "internalType": "address",
                    "name": "owner",
                    "type": "address"
                },
                {
                    "internalType": "address",
                    "name": "operator",
                    "type": "address"
                }
            ],
            "name": "isApprovedForAll",
            "outputs": [
                {
                    "internalType": "bool",
                    "name": "",
                    "type": "bool"
                }
            ],
            "stateMutability": "view",
            "type": "function"
        },
        {
            "inputs": [
                {
                    "internalType": "address",
                    "name": "recipient",
                    "type": "address"
                },
                {
                    "internalType": "uint256",
                    "name": "path",
                    "type": "uint256"
                },
                {
                    "internalType": "uint32",
                    "name": "version",
                    "type": "uint32"
                },
                {
                    "internalType": "bytes32",
                    "name": "certificate",
                    "type": "bytes32"
                },
                {
                    "internalType": "bytes",
                    "name": "signature",
                    "type": "bytes"
                }
            ],
            "name": "mintCertificate",
            "outputs": [
                {
                    "internalType": "uint256",
                    "name": "",
                    "type": "uint256"
                }
            ],
            "stateMutability": "payable",
            "type": "function"
        },
        {
            "inputs": [],
            "name": "name",
            "outputs": [
                {
                    "internalType": "string",
                    "name": "",
                    "type": "string"
                }
            ],
            "stateMutability": "view",
            "type": "function"
        },
        {
            "inputs": [],
            "name": "owner",
            "outputs": [
                {
                    "internalType": "address",
                    "name": "",
                    "type": "address"
                }
            ],
            "stateMutability": "view",
            "type": "function"
        },
        {
            "inputs": [
                {
                    "internalType": "uint256",
                    "name": "tokenId",
                    "type": "uint256"
                }
            ],
            "name": "ownerOf",
            "outputs": [
                {
                    "internalType": "address",
                    "name": "",
                    "type": "address"
                }
            ],
            "stateMutability": "view",
            "type": "function"
        },
        {
            "inputs": [],
            "name": "parentAddress",
            "outputs": [
                {
                    "internalType": "address",
                    "name": "",
                    "type": "address"
                }
            ],
            "stateMutability": "view",
            "type": "function"
        },
        {
            "inputs": [
                {
                    "internalType": "address",
                    "name": "newContract",
                    "type": "address"
                },
                {
                    "internalType": "bytes",
                    "name": "signature",
                    "type": "bytes"
                }
            ],
            "name": "redeployContract",
            "outputs": [],
            "stateMutability": "nonpayable",
            "type": "function"
        },
        {
            "inputs": [],
            "name": "redeployedAddress",
            "outputs": [
                {
                    "internalType": "address",
                    "name": "",
                    "type": "address"
                }
            ],
            "stateMutability": "view",
            "type": "function"
        },
        {
            "inputs": [],
            "name": "renounceOwnership",
            "outputs": [],
            "stateMutability": "nonpayable",
            "type": "function"
        },
        {
            "inputs": [
                {
                    "internalType": "uint256",
                    "name": "path",
                    "type": "uint256"
                }
            ],
            "name": "revokeCertificate",
            "outputs": [
                {
                    "internalType": "uint256",
                    "name": "",
                    "type": "uint256"
                }
            ],
            "stateMutability": "nonpayable",
            "type": "function"
        },
        {
            "inputs": [
                {
                    "internalType": "address",
                    "name": "from",
                    "type": "address"
                },
                {
                    "internalType": "address",
                    "name": "to",
                    "type": "address"
                },
                {
                    "internalType": "uint256",
                    "name": "tokenId",
                    "type": "uint256"
                }
            ],
            "name": "safeTransferFrom",
            "outputs": [],
            "stateMutability": "nonpayable",
            "type": "function"
        },
        {
            "inputs": [],
            "name": "safeTransferFrom",
            "outputs": [],
            "stateMutability": "pure",
            "type": "function"
        },
        {
            "inputs": [
                {
                    "internalType": "address",
                    "name": "from",
                    "type": "address"
                },
                {
                    "internalType": "address",
                    "name": "to",
                    "type": "address"
                },
                {
                    "internalType": "uint256",
                    "name": "tokenId",
                    "type": "uint256"
                },
                {
                    "internalType": "bytes",
                    "name": "_data",
                    "type": "bytes"
                }
            ],
            "name": "safeTransferFrom",
            "outputs": [],
            "stateMutability": "nonpayable",
            "type": "function"
        },
        {
            "inputs": [
                {
                    "internalType": "address",
                    "name": "operator",
                    "type": "address"
                },
                {
                    "internalType": "bool",
                    "name": "approved",
                    "type": "bool"
                }
            ],
            "name": "setApprovalForAll",
            "outputs": [],
            "stateMutability": "nonpayable",
            "type": "function"
        },
        {
            "inputs": [],
            "name": "setApprovalForAll",
            "outputs": [],
            "stateMutability": "pure",
            "type": "function"
        },
        {
            "inputs": [
                {
                    "internalType": "bytes4",
                    "name": "interfaceId",
                    "type": "bytes4"
                }
            ],
            "name": "supportsInterface",
            "outputs": [
                {
                    "internalType": "bool",
                    "name": "",
                    "type": "bool"
                }
            ],
            "stateMutability": "view",
            "type": "function"
        },
        {
            "inputs": [],
            "name": "symbol",
            "outputs": [
                {
                    "internalType": "string",
                    "name": "",
                    "type": "string"
                }
            ],
            "stateMutability": "view",
            "type": "function"
        },
        {
            "inputs": [
                {
                    "internalType": "uint256",
                    "name": "tokenId",
                    "type": "uint256"
                }
            ],
            "name": "tokenURI",
            "outputs": [
                {
                    "internalType": "string",
                    "name": "",
                    "type": "string"
                }
            ],
            "stateMutability": "view",
            "type": "function"
        },
        {
            "inputs": [
                {
                    "internalType": "address",
                    "name": "from",
                    "type": "address"
                },
                {
                    "internalType": "address",
                    "name": "to",
                    "type": "address"
                },
                {
                    "internalType": "uint256",
                    "name": "tokenId",
                    "type": "uint256"
                }
            ],
            "name": "transferFrom",
            "outputs": [],
            "stateMutability": "nonpayable",
            "type": "function"
        },
        {
            "inputs": [],
            "name": "transferFrom",
            "outputs": [],
            "stateMutability": "pure",
            "type": "function"
        },
        {
            "inputs": [
                {
                    "internalType": "address",
                    "name": "newOwner",
                    "type": "address"
                }
            ],
            "name": "transferOwnership",
            "outputs": [],
            "stateMutability": "nonpayable",
            "type": "function"
        },
        {
            "inputs": [
                {
                    "internalType": "address payable",
                    "name": "to",
                    "type": "address"
                },
                {
                    "internalType": "uint256",
                    "name": "amount",
                    "type": "uint256"
                },
                {
                    "internalType": "bytes",
                    "name": "signature",
                    "type": "bytes"
                }
            ],
            "name": "withdraw",
            "outputs": [],
            "stateMutability": "nonpayable",
            "type": "function"
        }
    ],
    "bytecode": "0x60806040523480156200001157600080fd5b506040516200615b3803806200615b833981810160405281019062000037919062000e43565b6040518060400160405280601281526020017f4e46544c532043657274696669636174657300000000000000000000000000008152506040518060400160405280600581526020017f4e46544c530000000000000000000000000000000000000000000000000000008152508160009080519060200190620000bb92919062000c14565b508060019080519060200190620000d492919062000c14565b505050620000f7620000eb620002c760201b60201c565b620002cf60201b60201c565b6000807f7479dc0da7c54b95f10aa182ad0a46400db63156920adb65eca2654c0945a463866200012c620002c760201b60201c565b84876040516020016200014495949392919062001194565b604051602081830303815290604052905060006200016982856200039560201b60201c565b90508573ffffffffffffffffffffffffffffffffffffffff168173ffffffffffffffffffffffffffffffffffffffff16146040518060400160405280601181526020017f496e76616c6964207369676e61747572650000000000000000000000000000008152509062000214576040517f08c379a00000000000000000000000000000000000000000000000000000000081526004016200020b9190620012cf565b60405180910390fd5b5086600b90805190602001906200022d92919062000c14565b506200024f62000242620002c760201b60201c565b84620004c660201b60201c565b84600c60008581526020019081526020016000208190555085600a60006101000a81548173ffffffffffffffffffffffffffffffffffffffff021916908373ffffffffffffffffffffffffffffffffffffffff160217905550620002ba8385620004ec60201b60201c565b5050505050505062001826565b600033905090565b6000600660009054906101000a900473ffffffffffffffffffffffffffffffffffffffff16905081600660006101000a81548173ffffffffffffffffffffffffffffffffffffffff021916908373ffffffffffffffffffffffffffffffffffffffff1602179055508173ffffffffffffffffffffffffffffffffffffffff168173ffffffffffffffffffffffffffffffffffffffff167f8be0079c531659141344cd1fd0a4f28419497f9722a3daafe3b4186f6b6457e060405160405180910390a35050565b600080620003a9836200055260201b60201c565b90507f7fffffffffffffffffffffffffffffff5d576e7357a4501ddfe92f46681b20a0816020015160001c1115620003e6576000915050620004c0565b601b816040015160ff1614158015620004075750601c816040015160ff1614155b1562000418576000915050620004c0565b6000620004318551620005c060201b620020111760201c565b8560405160200162000445929190620011f9565b604051602081830303815290604052905060018180519060200120836040015184600001518560200151604051600081526020016040526040516200048e949392919062001282565b6020604051602081039080840390855afa158015620004b1573d6000803e3d6000fd5b50505060206040510351925050505b92915050565b620004e88282604051806020016040528060008152506200078260201b60201c565b5050565b6000620004ff826200055260201b60201c565b90508060076000858152602001908152602001600020600082015181600001556020820151816001015560408201518160020160006101000a81548160ff021916908360ff160217905550905050505050565b6200055c62000ca5565b6000806000602085015192506040850151915060ff6041860151169050601b8160ff1610156200059857601b816200059591906200149e565b90505b60405180606001604052808481526020018381526020018260ff168152509350505050919050565b606060008214156200060a576040518060400160405280600181526020017f300000000000000000000000000000000000000000000000000000000000000081525090506200077d565b600082905060005b600082146200064257808062000628906200163c565b915050600a826200063a9190620014dc565b915062000612565b60008167ffffffffffffffff81111562000685577f4e487b7100000000000000000000000000000000000000000000000000000000600052604160045260246000fd5b6040519080825280601f01601f191660200182016040528015620006b85781602001600182028036833780820191505090505b5090505b600085146200077657600182620006d4919062001514565b9150600a85620006e59190620016c6565b6030620006f3919062001441565b60f81b81838151811062000730577f4e487b7100000000000000000000000000000000000000000000000000000000600052603260045260246000fd5b60200101907effffffffffffffffffffffffffffffffffffffffffffffffffffffffffffff1916908160001a905350600a856200076e9190620014dc565b9450620006bc565b8093505050505b919050565b620007948383620007f060201b60201c565b620007a96000848484620009d660201b60201c565b620007eb576040517f08c379a0000000000000000000000000000000000000000000000000000000008152600401620007e290620012f3565b60405180910390fd5b505050565b600073ffffffffffffffffffffffffffffffffffffffff168273ffffffffffffffffffffffffffffffffffffffff16141562000863576040517f08c379a00000000000000000000000000000000000000000000000000000000081526004016200085a9062001337565b60405180910390fd5b620008748162000b9060201b60201c565b15620008b7576040517f08c379a0000000000000000000000000000000000000000000000000000000008152600401620008ae9062001315565b60405180910390fd5b620008cb6000838362000bfc60201b60201c565b6001600360008473ffffffffffffffffffffffffffffffffffffffff1673ffffffffffffffffffffffffffffffffffffffff16815260200190815260200160002060008282546200091d919062001441565b92505081905550816002600083815260200190815260200160002060006101000a81548173ffffffffffffffffffffffffffffffffffffffff021916908373ffffffffffffffffffffffffffffffffffffffff160217905550808273ffffffffffffffffffffffffffffffffffffffff16600073ffffffffffffffffffffffffffffffffffffffff167fddf252ad1be2c89b69c2b068fc378daa952ba7f163c4a11628f55a4df523b3ef60405160405180910390a45050565b600062000a048473ffffffffffffffffffffffffffffffffffffffff1662000c0160201b620021be1760201c565b1562000b83578373ffffffffffffffffffffffffffffffffffffffff1663150b7a0262000a36620002c760201b60201c565b8786866040518563ffffffff1660e01b815260040162000a5a94939291906200122e565b602060405180830381600087803b15801562000a7557600080fd5b505af192505050801562000aa957506040513d601f19601f8201168201806040525081019062000aa6919062000e17565b60015b62000b32573d806000811462000adc576040519150601f19603f3d011682016040523d82523d6000602084013e62000ae1565b606091505b5060008151141562000b2a576040517f08c379a000000000000000000000000000000000000000000000000000000000815260040162000b2190620012f3565b60405180910390fd5b805181602001fd5b63150b7a0260e01b7bffffffffffffffffffffffffffffffffffffffffffffffffffffffff1916817bffffffffffffffffffffffffffffffffffffffffffffffffffffffff19161491505062000b88565b600190505b949350505050565b60008073ffffffffffffffffffffffffffffffffffffffff166002600084815260200190815260200160002060009054906101000a900473ffffffffffffffffffffffffffffffffffffffff1673ffffffffffffffffffffffffffffffffffffffff1614159050919050565b505050565b600080823b905060008111915050919050565b82805462000c229062001606565b90600052602060002090601f01602090048101928262000c46576000855562000c92565b82601f1062000c6157805160ff191683800117855562000c92565b8280016001018555821562000c92579182015b8281111562000c9157825182559160200191906001019062000c74565b5b50905062000ca1919062000ccf565b5090565b60405180606001604052806000801916815260200160008019168152602001600060ff1681525090565b5b8082111562000cea57600081600090555060010162000cd0565b5090565b600062000d0562000cff846200138d565b62001359565b90508281526020810184848401111562000d1e57600080fd5b62000d2b848285620015d0565b509392505050565b600062000d4a62000d4484620013c0565b62001359565b90508281526020810184848401111562000d6357600080fd5b62000d70848285620015d0565b509392505050565b60008151905062000d8981620017d8565b92915050565b60008151905062000da081620017f2565b92915050565b60008151905062000db7816200180c565b92915050565b600082601f83011262000dcf57600080fd5b815162000de184826020860162000cee565b91505092915050565b600082601f83011262000dfc57600080fd5b815162000e0e84826020860162000d33565b91505092915050565b60006020828403121562000e2a57600080fd5b600062000e3a8482850162000da6565b91505092915050565b6000806000806080858703121562000e5a57600080fd5b600085015167ffffffffffffffff81111562000e7557600080fd5b62000e838782880162000dea565b945050602062000e968782880162000d78565b935050604062000ea98782880162000d8f565b925050606085015167ffffffffffffffff81111562000ec757600080fd5b62000ed58782880162000dbd565b91505092959194509250565b62000eec816200154f565b82525050565b62000f0762000f01826200154f565b6200168a565b82525050565b62000f188162001563565b82525050565b62000f3362000f2d8262001563565b6200169e565b82525050565b600062000f4682620013f3565b62000f52818562001409565b935062000f64818560208601620015d0565b62000f6f81620017ba565b840191505092915050565b600062000f8782620013f3565b62000f9381856200141a565b935062000fa5818560208601620015d0565b80840191505092915050565b600062000fbe82620013fe565b62000fca818562001425565b935062000fdc818560208601620015d0565b62000fe781620017ba565b840191505092915050565b600062000fff82620013fe565b6200100b818562001436565b93506200101d818560208601620015d0565b80840191505092915050565b60006200103860328362001425565b91507f4552433732313a207472616e7366657220746f206e6f6e20455243373231526560008301527f63656976657220696d706c656d656e74657200000000000000000000000000006020830152604082019050919050565b6000620010a0601c8362001425565b91507f4552433732313a20746f6b656e20616c7265616479206d696e746564000000006000830152602082019050919050565b6000620010e260208362001425565b91507f4552433732313a206d696e7420746f20746865207a65726f20616464726573736000830152602082019050919050565b600062001124601a8362001436565b91507f19457468657265756d205369676e6564204d6573736167653a0a0000000000006000830152601a82019050919050565b6200116281620015b9565b82525050565b6200117d6200117782620015b9565b620016bc565b82525050565b6200118e81620015c3565b82525050565b6000620011a2828862000f1e565b602082019150620011b4828762000ff2565b9150620011c2828662000ef2565b601482019150620011d4828562001168565b602082019150620011e6828462000f1e565b6020820191508190509695505050505050565b6000620012068262001115565b915062001214828562000ff2565b915062001222828462000f7a565b91508190509392505050565b600060808201905062001245600083018762000ee1565b62001254602083018662000ee1565b62001263604083018562001157565b818103606083015262001277818462000f39565b905095945050505050565b600060808201905062001299600083018762000f0d565b620012a8602083018662001183565b620012b7604083018562000f0d565b620012c6606083018462000f0d565b95945050505050565b60006020820190508181036000830152620012eb818462000fb1565b905092915050565b600060208201905081810360008301526200130e8162001029565b9050919050565b60006020820190508181036000830152620013308162001091565b9050919050565b600060208201905081810360008301526200135281620010d3565b9050919050565b6000604051905081810181811067ffffffffffffffff821117156200138357620013826200178b565b5b8060405250919050565b600067ffffffffffffffff821115620013ab57620013aa6200178b565b5b601f19601f8301169050602081019050919050565b600067ffffffffffffffff821115620013de57620013dd6200178b565b5b601f19601f8301169050602081019050919050565b600081519050919050565b600081519050919050565b600082825260208201905092915050565b600081905092915050565b600082825260208201905092915050565b600081905092915050565b60006200144e82620015b9565b91506200145b83620015b9565b9250827fffffffffffffffffffffffffffffffffffffffffffffffffffffffffffffffff03821115620014935762001492620016fe565b5b828201905092915050565b6000620014ab82620015c3565b9150620014b883620015c3565b92508260ff03821115620014d157620014d0620016fe565b5b828201905092915050565b6000620014e982620015b9565b9150620014f683620015b9565b9250826200150957620015086200172d565b5b828204905092915050565b60006200152182620015b9565b91506200152e83620015b9565b925082821015620015445762001543620016fe565b5b828203905092915050565b60006200155c8262001599565b9050919050565b6000819050919050565b60007fffffffff0000000000000000000000000000000000000000000000000000000082169050919050565b600073ffffffffffffffffffffffffffffffffffffffff82169050919050565b6000819050919050565b600060ff82169050919050565b60005b83811015620015f0578082015181840152602081019050620015d3565b8381111562001600576000848401525b50505050565b600060028204905060018216806200161f57607f821691505b602082108114156200163657620016356200175c565b5b50919050565b60006200164982620015b9565b91507fffffffffffffffffffffffffffffffffffffffffffffffffffffffffffffffff8214156200167f576200167e620016fe565b5b600182019050919050565b60006200169782620016a8565b9050919050565b6000819050919050565b6000620016b582620017cb565b9050919050565b6000819050919050565b6000620016d382620015b9565b9150620016e083620015b9565b925082620016f357620016f26200172d565b5b828206905092915050565b7f4e487b7100000000000000000000000000000000000000000000000000000000600052601160045260246000fd5b7f4e487b7100000000000000000000000000000000000000000000000000000000600052601260045260246000fd5b7f4e487b7100000000000000000000000000000000000000000000000000000000600052602260045260246000fd5b7f4e487b7100000000000000000000000000000000000000000000000000000000600052604160045260246000fd5b6000601f19601f8301169050919050565b60008160601b9050919050565b620017e3816200154f565b8114620017ef57600080fd5b50565b620017fd8162001563565b81146200180957600080fd5b50565b62001817816200156d565b81146200182357600080fd5b50565b61492580620018366000396000f3fe6080604052600436106101cc5760003560e01c8063715018a6116100f7578063a22cb46511610095578063cb44977711610064578063cb44977714610657578063cc9562a514610682578063e985e9c514610699578063f2fde38b146106d6576101cc565b8063a22cb4651461059d578063b88d4fde146105c6578063c002d23d146105ef578063c87b56dd1461061a576101cc565b806389329c9f116100d157806389329c9f146104d75780638da5cb5b1461051757806395d89b4114610542578063a0c42b2e1461056d576101cc565b8063715018a61461047e5780637a0101a214610495578063811c34d3146104c0576101cc565b806323b872dd1161016f578063445cfe121161013e578063445cfe12146103c45780636352211e146103db57806369d268851461041857806370a0823114610441576101cc565b806323b872dd1461031e57806331f09265146103475780633ae6627c1461037057806342842e0e1461039b576101cc565b806306fdde03116101ab57806306fdde0314610276578063081812fc146102a1578063095ea7b3146102de57806312424e3f14610307576101cc565b8062821de3146101d157806301ffc9a7146101fc57806306f5497e14610239575b600080fd5b3480156101dd57600080fd5b506101e66106ff565b6040516101f39190613fb8565b60405180910390f35b34801561020857600080fd5b50610223600480360381019061021e919061352e565b610725565b604051610230919061401f565b60405180910390f35b34801561024557600080fd5b50610260600480360381019061025b9190613580565b610807565b60405161026d919061432d565b60405180910390f35b34801561028257600080fd5b5061028b610af9565b60405161029891906140cb565b60405180910390f35b3480156102ad57600080fd5b506102c860048036038101906102c39190613580565b610b8b565b6040516102d59190613fb8565b60405180910390f35b3480156102ea57600080fd5b5061030560048036038101906103009190613463565b610c10565b005b34801561031357600080fd5b5061031c610d28565b005b34801561032a57600080fd5b5061034560048036038101906103409190613309565b610d63565b005b34801561035357600080fd5b5061036e60048036038101906103699190613266565b610dc3565b005b34801561037c57600080fd5b5061038561103d565b604051610392919061432d565b60405180910390f35b3480156103a757600080fd5b506103c260048036038101906103bd9190613309565b611048565b005b3480156103d057600080fd5b506103d9611068565b005b3480156103e757600080fd5b5061040260048036038101906103fd9190613580565b6110a3565b60405161040f9190613fb8565b60405180910390f35b34801561042457600080fd5b5061043f600480360381019061043a919061340f565b611155565b005b34801561044d57600080fd5b506104686004803603810190610463919061323d565b611468565b604051610475919061432d565b60405180910390f35b34801561048a57600080fd5b50610493611520565b005b3480156104a157600080fd5b506104aa6115a8565b6040516104b791906140cb565b60405180910390f35b3480156104cc57600080fd5b506104d5611636565b005b3480156104e357600080fd5b506104fe60048036038101906104f991906135a9565b611671565b60405161050e949392919061403a565b60405180910390f35b34801561052357600080fd5b5061052c611784565b6040516105399190613fb8565b60405180910390f35b34801561054e57600080fd5b506105576117ae565b60405161056491906140cb565b60405180910390f35b6105876004803603810190610582919061349f565b611840565b604051610594919061432d565b60405180910390f35b3480156105a957600080fd5b506105c460048036038101906105bf91906133d3565b611cfa565b005b3480156105d257600080fd5b506105ed60048036038101906105e89190613358565b611d10565b005b3480156105fb57600080fd5b50610604611d72565b604051610611919061432d565b60405180910390f35b34801561062657600080fd5b50610641600480360381019061063c9190613580565b611d7d565b60405161064e91906140cb565b60405180910390f35b34801561066357600080fd5b5061066c611e24565b6040516106799190613fb8565b60405180910390f35b34801561068e57600080fd5b50610697611e4a565b005b3480156106a557600080fd5b506106c060048036038101906106bb91906132cd565b611e85565b6040516106cd919061401f565b60405180910390f35b3480156106e257600080fd5b506106fd60048036038101906106f8919061323d565b611f19565b005b600a60009054906101000a900473ffffffffffffffffffffffffffffffffffffffff1681565b60007f80ac58cd000000000000000000000000000000000000000000000000000000007bffffffffffffffffffffffffffffffffffffffffffffffffffffffff1916827bffffffffffffffffffffffffffffffffffffffffffffffffffffffff191614806107f057507f5b5e139f000000000000000000000000000000000000000000000000000000007bffffffffffffffffffffffffffffffffffffffffffffffffffffffff1916827bffffffffffffffffffffffffffffffffffffffffffffffffffffffff1916145b8061080057506107ff826121d1565b5b9050919050565b60008060001b600c60008481526020019081526020016000205414156040518060400160405280601a81526020017f436572746966696361746520646f6573206e6f742065786973740000000000008152509061089a576040517f08c379a000000000000000000000000000000000000000000000000000000000815260040161089191906140cb565b60405180910390fd5b506108a3611784565b73ffffffffffffffffffffffffffffffffffffffff166108c161223b565b73ffffffffffffffffffffffffffffffffffffffff1614610a075760007fdaf0b3c5710379609eb5495f1ecd348cb28167711b73609fe565a7273455035461090761223b565b84600c60008781526020019081526020016000205460405160200161092f9493929190613eeb565b604051602081830303815290604052905060006109548261094f86612243565b6122a3565b905061095e611784565b73ffffffffffffffffffffffffffffffffffffffff168173ffffffffffffffffffffffffffffffffffffffff16146040518060400160405280601181526020017f496e76616c6964207369676e617475726500000000000000000000000000000081525090610a03576040517f08c379a00000000000000000000000000000000000000000000000000000000081526004016109fa91906140cb565b60405180910390fd5b5050505b6000821415610ac657610a18611784565b73ffffffffffffffffffffffffffffffffffffffff16610a3661223b565b73ffffffffffffffffffffffffffffffffffffffff16146040518060400160405280600e81526020017f496e76616c69642073656e64657200000000000000000000000000000000000081525090610ac4576040517f08c379a0000000000000000000000000000000000000000000000000000000008152600401610abb91906140cb565b60405180910390fd5b505b42600e600084815260200190815260200160002081905550600e6000838152602001908152602001600020549050919050565b606060008054610b0890614632565b80601f0160208091040260200160405190810160405280929190818152602001828054610b3490614632565b8015610b815780601f10610b5657610100808354040283529160200191610b81565b820191906000526020600020905b815481529060010190602001808311610b6457829003601f168201915b5050505050905090565b6000610b96826123b5565b610bd5576040517f08c379a0000000000000000000000000000000000000000000000000000000008152600401610bcc9061424d565b60405180910390fd5b6004600083815260200190815260200160002060009054906101000a900473ffffffffffffffffffffffffffffffffffffffff169050919050565b6000610c1b826110a3565b90508073ffffffffffffffffffffffffffffffffffffffff168373ffffffffffffffffffffffffffffffffffffffff161415610c8c576040517f08c379a0000000000000000000000000000000000000000000000000000000008152600401610c83906142cd565b60405180910390fd5b8073ffffffffffffffffffffffffffffffffffffffff16610cab61223b565b73ffffffffffffffffffffffffffffffffffffffff161480610cda5750610cd981610cd461223b565b611e85565b5b610d19576040517f08c379a0000000000000000000000000000000000000000000000000000000008152600401610d10906141cd565b60405180910390fd5b610d238383612421565b505050565b6040517f08c379a0000000000000000000000000000000000000000000000000000000008152600401610d5a9061418d565b60405180910390fd5b610d74610d6e61223b565b826124da565b610db3576040517f08c379a0000000000000000000000000000000000000000000000000000000008152600401610daa906142ed565b60405180910390fd5b610dbe8383836125b8565b505050565b610dcb61223b565b73ffffffffffffffffffffffffffffffffffffffff16610de9611784565b73ffffffffffffffffffffffffffffffffffffffff1614610e3f576040517f08c379a0000000000000000000000000000000000000000000000000000000008152600401610e369061426d565b60405180910390fd5b478211156040518060400160405280601e81526020017f496e73756666696369656e74207472616e73616374696f6e2076616c7565000081525090610eba576040517f08c379a0000000000000000000000000000000000000000000000000000000008152600401610eb191906140cb565b60405180910390fd5b5060007f855511cc3694f64379908437d6d64458dc76d02482052bfb8a5b33a72c054c778484610eea6009612814565b604051602001610efd9493929190613e9d565b60405160208183030381529060405290506000610f1a82846122a3565b9050600a60009054906101000a900473ffffffffffffffffffffffffffffffffffffffff1673ffffffffffffffffffffffffffffffffffffffff168173ffffffffffffffffffffffffffffffffffffffff16146040518060400160405280601181526020017f496e76616c6964207369676e617475726500000000000000000000000000000081525090610fe4576040517f08c379a0000000000000000000000000000000000000000000000000000000008152600401610fdb91906140cb565b60405180910390fd5b50610fef6009612822565b8473ffffffffffffffffffffffffffffffffffffffff166108fc859081150290604051600060405180830381858888f19350505050158015611035573d6000803e3d6000fd5b505050505050565b666a94d74f43000081565b61106383838360405180602001604052806000815250611d10565b505050565b6040517f08c379a000000000000000000000000000000000000000000000000000000000815260040161109a9061418d565b60405180910390fd5b6000806002600084815260200190815260200160002060009054906101000a900473ffffffffffffffffffffffffffffffffffffffff169050600073ffffffffffffffffffffffffffffffffffffffff168173ffffffffffffffffffffffffffffffffffffffff16141561114c576040517f08c379a00000000000000000000000000000000000000000000000000000000081526004016111439061420d565b60405180910390fd5b80915050919050565b600073ffffffffffffffffffffffffffffffffffffffff16600860009054906101000a900473ffffffffffffffffffffffffffffffffffffffff1673ffffffffffffffffffffffffffffffffffffffff16146111e6576040517f08c379a00000000000000000000000000000000000000000000000000000000081526004016111dd9061430d565b60405180910390fd5b6111ee61223b565b73ffffffffffffffffffffffffffffffffffffffff1661120c611784565b73ffffffffffffffffffffffffffffffffffffffff1614611262576040517f08c379a00000000000000000000000000000000000000000000000000000000081526004016112599061426d565b60405180910390fd5b60006112af7fe8f449431f133fd7132a45445bb0d15d37b99b284449c29fe55e30714f5cd83e8460405160200161129a929190613e71565b604051602081830303815290604052836122a3565b9050600a60009054906101000a900473ffffffffffffffffffffffffffffffffffffffff1673ffffffffffffffffffffffffffffffffffffffff168173ffffffffffffffffffffffffffffffffffffffff16146040518060400160405280601181526020017f496e76616c6964207369676e617475726500000000000000000000000000000081525090611379576040517f08c379a000000000000000000000000000000000000000000000000000000000815260040161137091906140cb565b60405180910390fd5b503073ffffffffffffffffffffffffffffffffffffffff168373ffffffffffffffffffffffffffffffffffffffff1614156040518060400160405280600f81526020017f496e76616c69642061646472657373000000000000000000000000000000000081525090611421576040517f08c379a000000000000000000000000000000000000000000000000000000000815260040161141891906140cb565b60405180910390fd5b5082600860006101000a81548173ffffffffffffffffffffffffffffffffffffffff021916908373ffffffffffffffffffffffffffffffffffffffff160217905550505050565b60008073ffffffffffffffffffffffffffffffffffffffff168273ffffffffffffffffffffffffffffffffffffffff1614156114d9576040517f08c379a00000000000000000000000000000000000000000000000000000000081526004016114d0906141ed565b60405180910390fd5b600360008373ffffffffffffffffffffffffffffffffffffffff1673ffffffffffffffffffffffffffffffffffffffff168152602001908152602001600020549050919050565b61152861223b565b73ffffffffffffffffffffffffffffffffffffffff16611546611784565b73ffffffffffffffffffffffffffffffffffffffff161461159c576040517f08c379a00000000000000000000000000000000000000000000000000000000081526004016115939061426d565b60405180910390fd5b6115a66000612838565b565b600b80546115b590614632565b80601f01602080910402602001604051908101604052809291908181526020018280546115e190614632565b801561162e5780601f106116035761010080835404028352916020019161162e565b820191906000526020600020905b81548152906001019060200180831161161157829003601f168201915b505050505081565b6040517f08c379a00000000000000000000000000000000000000000000000000000000081526004016116689061418d565b60405180910390fd5b6000806000606084156116ae576000600d6000888152602001908152602001600020549050600081116116a457866116a6565b805b9350506116b2565b8592505b6000801b600c60008581526020019081526020016000205414156040518060400160405280601a81526020017f436572746966696361746520646f6573206e6f7420657869737400000000000081525090611743576040517f08c379a000000000000000000000000000000000000000000000000000000000815260040161173a91906140cb565b60405180910390fd5b50600c600084815260200190815260200160002054935061176383612243565b9050600e600084815260200190815260200160002054915092959194509250565b6000600660009054906101000a900473ffffffffffffffffffffffffffffffffffffffff16905090565b6060600180546117bd90614632565b80601f01602080910402602001604051908101604052809291908181526020018280546117e990614632565b80156118365780601f1061180b57610100808354040283529160200191611836565b820191906000526020600020905b81548152906001019060200180831161181957829003601f168201915b5050505050905090565b60008073ffffffffffffffffffffffffffffffffffffffff16600860009054906101000a900473ffffffffffffffffffffffffffffffffffffffff1673ffffffffffffffffffffffffffffffffffffffff16146118d2576040517f08c379a00000000000000000000000000000000000000000000000000000000081526004016118c99061430d565b60405180910390fd5b600085116040518060400160405280600c81526020017f496e76616c6964207061746800000000000000000000000000000000000000008152509061194d576040517f08c379a000000000000000000000000000000000000000000000000000000000815260040161194491906140cb565b60405180910390fd5b50600061195a86866128fe565b90506000801b600c600083815260200190815260200160002054146040518060400160405280601a81526020017f436572746966696361746520616c726561647920657869737473000000000000815250906119ec576040517f08c379a00000000000000000000000000000000000000000000000000000000081526004016119e391906140cb565b60405180910390fd5b506000611a3e7fdaf0b3c5710379609eb5495f1ecd348cb28167711b73609fe565a72734550354898488604051602001611a299493929190613eeb565b604051602081830303815290604052856122a3565b9050611a48611784565b73ffffffffffffffffffffffffffffffffffffffff168173ffffffffffffffffffffffffffffffffffffffff16146040518060400160405280601181526020017f496e76616c6964207369676e617475726500000000000000000000000000000081525090611aed576040517f08c379a0000000000000000000000000000000000000000000000000000000008152600401611ae491906140cb565b60405180910390fd5b5060005b8663ffffffff168163ffffffff161015611bb0576000600e6000611b158b856128fe565b815260200190815260200160002054116040518060400160405280601f81526020017f54686520636572746966696361746520776173206e6f74207265766f6b65640081525090611b9c576040517f08c379a0000000000000000000000000000000000000000000000000000000008152600401611b9391906140cb565b60405180910390fd5b508080611ba8906146ad565b915050611af1565b50611bb9611784565b73ffffffffffffffffffffffffffffffffffffffff16611bd761223b565b73ffffffffffffffffffffffffffffffffffffffff1614611c98578563ffffffff16666a94d74f430000611c0b91906144b5565b66b1a2bc2ec50000611c1d91906143f7565b34146040518060400160405280601e81526020017f496e73756666696369656e74207472616e73616374696f6e2076616c7565000081525090611c96576040517f08c379a0000000000000000000000000000000000000000000000000000000008152600401611c8d91906140cb565b60405180910390fd5b505b611ca2888361294b565b84600c600084815260200190815260200160002081905550611cc48285612969565b60008663ffffffff161115611cec5781600d6000898152602001908152602001600020819055505b819250505095945050505050565b611d0c611d0561223b565b83836129c7565b5050565b611d21611d1b61223b565b836124da565b611d60576040517f08c379a0000000000000000000000000000000000000000000000000000000008152600401611d57906142ed565b60405180910390fd5b611d6c84848484612b34565b50505050565b66b1a2bc2ec5000081565b6060611d88826123b5565b611dc7576040517f08c379a0000000000000000000000000000000000000000000000000000000008152600401611dbe906142ad565b60405180910390fd5b6000611dd1612b90565b90506000815111611df15760405180602001604052806000815250611e1c565b80611dfb84612011565b604051602001611e0c929190613f39565b6040516020818303038152906040525b915050919050565b600860009054906101000a900473ffffffffffffffffffffffffffffffffffffffff1681565b6040517f08c379a0000000000000000000000000000000000000000000000000000000008152600401611e7c9061418d565b60405180910390fd5b6000600560008473ffffffffffffffffffffffffffffffffffffffff1673ffffffffffffffffffffffffffffffffffffffff16815260200190815260200160002060008373ffffffffffffffffffffffffffffffffffffffff1673ffffffffffffffffffffffffffffffffffffffff16815260200190815260200160002060009054906101000a900460ff16905092915050565b611f2161223b565b73ffffffffffffffffffffffffffffffffffffffff16611f3f611784565b73ffffffffffffffffffffffffffffffffffffffff1614611f95576040517f08c379a0000000000000000000000000000000000000000000000000000000008152600401611f8c9061426d565b60405180910390fd5b600073ffffffffffffffffffffffffffffffffffffffff168173ffffffffffffffffffffffffffffffffffffffff161415612005576040517f08c379a0000000000000000000000000000000000000000000000000000000008152600401611ffc9061410d565b60405180910390fd5b61200e81612838565b50565b60606000821415612059576040518060400160405280600181526020017f300000000000000000000000000000000000000000000000000000000000000081525090506121b9565b600082905060005b6000821461208b57808061207490614664565b915050600a826120849190614484565b9150612061565b60008167ffffffffffffffff8111156120cd577f4e487b7100000000000000000000000000000000000000000000000000000000600052604160045260246000fd5b6040519080825280601f01601f1916602001820160405280156120ff5781602001600182028036833780820191505090505b5090505b600085146121b257600182612118919061450f565b9150600a856121279190614736565b603061213391906143f7565b60f81b81838151811061216f577f4e487b7100000000000000000000000000000000000000000000000000000000600052603260045260246000fd5b60200101907effffffffffffffffffffffffffffffffffffffffffffffffffffffffffffff1916908160001a905350600a856121ab9190614484565b9450612103565b8093505050505b919050565b600080823b905060008111915050919050565b60007f01ffc9a7000000000000000000000000000000000000000000000000000000007bffffffffffffffffffffffffffffffffffffffffffffffffffffffff1916827bffffffffffffffffffffffffffffffffffffffffffffffffffffffff1916149050919050565b600033905090565b606061229c6007600084815260200190815260200160002060405180606001604052908160008201548152602001600182015481526020016002820160009054906101000a900460ff1660ff1660ff1681525050612c22565b9050919050565b6000806122af83612cd5565b90507f7fffffffffffffffffffffffffffffff5d576e7357a4501ddfe92f46681b20a0816020015160001c11156122ea5760009150506123af565b601b816040015160ff161415801561230a5750601c816040015160ff1614155b156123195760009150506123af565b60006123258551612011565b85604051602001612337929190613f5d565b6040516020818303038152906040529050600181805190602001208360400151846000015185602001516040516000815260200160405260405161237e9493929190614086565b6020604051602081039080840390855afa1580156123a0573d6000803e3d6000fd5b50505060206040510351925050505b92915050565b60008073ffffffffffffffffffffffffffffffffffffffff166002600084815260200190815260200160002060009054906101000a900473ffffffffffffffffffffffffffffffffffffffff1673ffffffffffffffffffffffffffffffffffffffff1614159050919050565b816004600083815260200190815260200160002060006101000a81548173ffffffffffffffffffffffffffffffffffffffff021916908373ffffffffffffffffffffffffffffffffffffffff160217905550808273ffffffffffffffffffffffffffffffffffffffff16612494836110a3565b73ffffffffffffffffffffffffffffffffffffffff167f8c5be1e5ebec7d5bd14f71427d1e84f3dd0314c0f7b2291e5b200ac8c7c3b92560405160405180910390a45050565b60006124e5826123b5565b612524576040517f08c379a000000000000000000000000000000000000000000000000000000000815260040161251b906141ad565b60405180910390fd5b600061252f836110a3565b90508073ffffffffffffffffffffffffffffffffffffffff168473ffffffffffffffffffffffffffffffffffffffff16148061259e57508373ffffffffffffffffffffffffffffffffffffffff1661258684610b8b565b73ffffffffffffffffffffffffffffffffffffffff16145b806125af57506125ae8185611e85565b5b91505092915050565b8273ffffffffffffffffffffffffffffffffffffffff166125d8826110a3565b73ffffffffffffffffffffffffffffffffffffffff161461262e576040517f08c379a00000000000000000000000000000000000000000000000000000000081526004016126259061428d565b60405180910390fd5b600073ffffffffffffffffffffffffffffffffffffffff168273ffffffffffffffffffffffffffffffffffffffff16141561269e576040517f08c379a00000000000000000000000000000000000000000000000000000000081526004016126959061414d565b60405180910390fd5b6126a9838383612d3e565b6126b4600082612421565b6001600360008573ffffffffffffffffffffffffffffffffffffffff1673ffffffffffffffffffffffffffffffffffffffff1681526020019081526020016000206000828254612704919061450f565b925050819055506001600360008473ffffffffffffffffffffffffffffffffffffffff1673ffffffffffffffffffffffffffffffffffffffff168152602001908152602001600020600082825461275b91906143f7565b92505081905550816002600083815260200190815260200160002060006101000a81548173ffffffffffffffffffffffffffffffffffffffff021916908373ffffffffffffffffffffffffffffffffffffffff160217905550808273ffffffffffffffffffffffffffffffffffffffff168473ffffffffffffffffffffffffffffffffffffffff167fddf252ad1be2c89b69c2b068fc378daa952ba7f163c4a11628f55a4df523b3ef60405160405180910390a4505050565b600081600001549050919050565b6001816000016000828254019250508190555050565b6000600660009054906101000a900473ffffffffffffffffffffffffffffffffffffffff16905081600660006101000a81548173ffffffffffffffffffffffffffffffffffffffff021916908373ffffffffffffffffffffffffffffffffffffffff1602179055508173ffffffffffffffffffffffffffffffffffffffff168173ffffffffffffffffffffffffffffffffffffffff167f8be0079c531659141344cd1fd0a4f28419497f9722a3daafe3b4186f6b6457e060405160405180910390a35050565b6000808263ffffffff16141561291657829050612945565b8282604051602001612929929190613f8c565b6040516020818303038152906040528051906020012060001c90505b92915050565b612965828260405180602001604052806000815250612d43565b5050565b600061297482612cd5565b90508060076000858152602001908152602001600020600082015181600001556020820151816001015560408201518160020160006101000a81548160ff021916908360ff160217905550905050505050565b8173ffffffffffffffffffffffffffffffffffffffff168373ffffffffffffffffffffffffffffffffffffffff161415612a36576040517f08c379a0000000000000000000000000000000000000000000000000000000008152600401612a2d9061416d565b60405180910390fd5b80600560008573ffffffffffffffffffffffffffffffffffffffff1673ffffffffffffffffffffffffffffffffffffffff16815260200190815260200160002060008473ffffffffffffffffffffffffffffffffffffffff1673ffffffffffffffffffffffffffffffffffffffff16815260200190815260200160002060006101000a81548160ff0219169083151502179055508173ffffffffffffffffffffffffffffffffffffffff168373ffffffffffffffffffffffffffffffffffffffff167f17307eab39ab6107e8899845ad3d59bd9653f200f220920489ca2b5937696c3183604051612b27919061401f565b60405180910390a3505050565b612b3f8484846125b8565b612b4b84848484612d9e565b612b8a576040517f08c379a0000000000000000000000000000000000000000000000000000000008152600401612b81906140ed565b60405180910390fd5b50505050565b6060600b8054612b9f90614632565b80601f0160208091040260200160405190810160405280929190818152602001828054612bcb90614632565b8015612c185780601f10612bed57610100808354040283529160200191612c18565b820191906000526020600020905b815481529060010190602001808311612bfb57829003601f168201915b5050505050905090565b60606000604167ffffffffffffffff811115612c67577f4e487b7100000000000000000000000000000000000000000000000000000000600052604160045260246000fd5b6040519080825280601f01601f191660200182016040528015612c995781602001600182028036833780820191505090505b50905060008360000151905060008460200151905060008560400151905082602085015280604185015281604085015283945050505050919050565b612cdd613103565b6000806000602085015192506040850151915060ff6041860151169050601b8160ff161015612d1657601b81612d13919061444d565b90505b60405180606001604052808481526020018381526020018260ff168152509350505050919050565b505050565b612d4d8383612f35565b612d5a6000848484612d9e565b612d99576040517f08c379a0000000000000000000000000000000000000000000000000000000008152600401612d90906140ed565b60405180910390fd5b505050565b6000612dbf8473ffffffffffffffffffffffffffffffffffffffff166121be565b15612f28578373ffffffffffffffffffffffffffffffffffffffff1663150b7a02612de861223b565b8786866040518563ffffffff1660e01b8152600401612e0a9493929190613fd3565b602060405180830381600087803b158015612e2457600080fd5b505af1925050508015612e5557506040513d601f19601f82011682018060405250810190612e529190613557565b60015b612ed8573d8060008114612e85576040519150601f19603f3d011682016040523d82523d6000602084013e612e8a565b606091505b50600081511415612ed0576040517f08c379a0000000000000000000000000000000000000000000000000000000008152600401612ec7906140ed565b60405180910390fd5b805181602001fd5b63150b7a0260e01b7bffffffffffffffffffffffffffffffffffffffffffffffffffffffff1916817bffffffffffffffffffffffffffffffffffffffffffffffffffffffff191614915050612f2d565b600190505b949350505050565b600073ffffffffffffffffffffffffffffffffffffffff168273ffffffffffffffffffffffffffffffffffffffff161415612fa5576040517f08c379a0000000000000000000000000000000000000000000000000000000008152600401612f9c9061422d565b60405180910390fd5b612fae816123b5565b15612fee576040517f08c379a0000000000000000000000000000000000000000000000000000000008152600401612fe59061412d565b60405180910390fd5b612ffa60008383612d3e565b6001600360008473ffffffffffffffffffffffffffffffffffffffff1673ffffffffffffffffffffffffffffffffffffffff168152602001908152602001600020600082825461304a91906143f7565b92505081905550816002600083815260200190815260200160002060006101000a81548173ffffffffffffffffffffffffffffffffffffffff021916908373ffffffffffffffffffffffffffffffffffffffff160217905550808273ffffffffffffffffffffffffffffffffffffffff16600073ffffffffffffffffffffffffffffffffffffffff167fddf252ad1be2c89b69c2b068fc378daa952ba7f163c4a11628f55a4df523b3ef60405160405180910390a45050565b60405180606001604052806000801916815260200160008019168152602001600060ff1681525090565b600061314061313b84614379565b614348565b90508281526020810184848401111561315857600080fd5b6131638482856145f0565b509392505050565b60008135905061317a8161484e565b92915050565b60008135905061318f81614865565b92915050565b6000813590506131a48161487c565b92915050565b6000813590506131b981614893565b92915050565b6000813590506131ce816148aa565b92915050565b6000815190506131e3816148aa565b92915050565b600082601f8301126131fa57600080fd5b813561320a84826020860161312d565b91505092915050565b600081359050613222816148c1565b92915050565b600081359050613237816148d8565b92915050565b60006020828403121561324f57600080fd5b600061325d8482850161316b565b91505092915050565b60008060006060848603121561327b57600080fd5b600061328986828701613180565b935050602061329a86828701613213565b925050604084013567ffffffffffffffff8111156132b757600080fd5b6132c3868287016131e9565b9150509250925092565b600080604083850312156132e057600080fd5b60006132ee8582860161316b565b92505060206132ff8582860161316b565b9150509250929050565b60008060006060848603121561331e57600080fd5b600061332c8682870161316b565b935050602061333d8682870161316b565b925050604061334e86828701613213565b9150509250925092565b6000806000806080858703121561336e57600080fd5b600061337c8782880161316b565b945050602061338d8782880161316b565b935050604061339e87828801613213565b925050606085013567ffffffffffffffff8111156133bb57600080fd5b6133c7878288016131e9565b91505092959194509250565b600080604083850312156133e657600080fd5b60006133f48582860161316b565b925050602061340585828601613195565b9150509250929050565b6000806040838503121561342257600080fd5b60006134308582860161316b565b925050602083013567ffffffffffffffff81111561344d57600080fd5b613459858286016131e9565b9150509250929050565b6000806040838503121561347657600080fd5b60006134848582860161316b565b925050602061349585828601613213565b9150509250929050565b600080600080600060a086880312156134b757600080fd5b60006134c58882890161316b565b95505060206134d688828901613213565b94505060406134e788828901613228565b93505060606134f8888289016131aa565b925050608086013567ffffffffffffffff81111561351557600080fd5b613521888289016131e9565b9150509295509295909350565b60006020828403121561354057600080fd5b600061354e848285016131bf565b91505092915050565b60006020828403121561356957600080fd5b6000613577848285016131d4565b91505092915050565b60006020828403121561359257600080fd5b60006135a084828501613213565b91505092915050565b600080604083850312156135bc57600080fd5b60006135ca85828601613213565b92505060206135db85828601613195565b9150509250929050565b6135f66135f182614555565b6146ec565b82525050565b61360581614543565b82525050565b61361c61361782614543565b6146da565b82525050565b61362b81614567565b82525050565b61363a81614573565b82525050565b61365161364c82614573565b6146fe565b82525050565b6000613662826143a9565b61366c81856143bf565b935061367c8185602086016145ff565b61368581614823565b840191505092915050565b600061369b826143a9565b6136a581856143d0565b93506136b58185602086016145ff565b80840191505092915050565b60006136cc826143b4565b6136d681856143db565b93506136e68185602086016145ff565b6136ef81614823565b840191505092915050565b6000613705826143b4565b61370f81856143ec565b935061371f8185602086016145ff565b80840191505092915050565b60006137386032836143db565b91507f4552433732313a207472616e7366657220746f206e6f6e20455243373231526560008301527f63656976657220696d706c656d656e74657200000000000000000000000000006020830152604082019050919050565b600061379e6026836143db565b91507f4f776e61626c653a206e6577206f776e657220697320746865207a65726f206160008301527f64647265737300000000000000000000000000000000000000000000000000006020830152604082019050919050565b6000613804601c836143db565b91507f4552433732313a20746f6b656e20616c7265616479206d696e746564000000006000830152602082019050919050565b60006138446024836143db565b91507f4552433732313a207472616e7366657220746f20746865207a65726f2061646460008301527f72657373000000000000000000000000000000000000000000000000000000006020830152604082019050919050565b60006138aa6019836143db565b91507f4552433732313a20617070726f766520746f2063616c6c6572000000000000006000830152602082019050919050565b60006138ea6031836143db565b91507f5472616e736665727320617265206e6f7420616c6c6f77656420666f72204e4660008301527f544c53206365727469666963617465732e0000000000000000000000000000006020830152604082019050919050565b6000613950602c836143db565b91507f4552433732313a206f70657261746f7220717565727920666f72206e6f6e657860008301527f697374656e7420746f6b656e00000000000000000000000000000000000000006020830152604082019050919050565b60006139b66038836143db565b91507f4552433732313a20617070726f76652063616c6c6572206973206e6f74206f7760008301527f6e6572206e6f7220617070726f76656420666f7220616c6c00000000000000006020830152604082019050919050565b6000613a1c602a836143db565b91507f4552433732313a2062616c616e636520717565727920666f7220746865207a6560008301527f726f2061646472657373000000000000000000000000000000000000000000006020830152604082019050919050565b6000613a826029836143db565b91507f4552433732313a206f776e657220717565727920666f72206e6f6e657869737460008301527f656e7420746f6b656e00000000000000000000000000000000000000000000006020830152604082019050919050565b6000613ae86020836143db565b91507f4552433732313a206d696e7420746f20746865207a65726f20616464726573736000830152602082019050919050565b6000613b28602c836143db565b91507f4552433732313a20617070726f76656420717565727920666f72206e6f6e657860008301527f697374656e7420746f6b656e00000000000000000000000000000000000000006020830152604082019050919050565b6000613b8e6020836143db565b91507f4f776e61626c653a2063616c6c6572206973206e6f7420746865206f776e65726000830152602082019050919050565b6000613bce601a836143ec565b91507f19457468657265756d205369676e6564204d6573736167653a0a0000000000006000830152601a82019050919050565b6000613c0e6029836143db565b91507f4552433732313a207472616e73666572206f6620746f6b656e2074686174206960008301527f73206e6f74206f776e00000000000000000000000000000000000000000000006020830152604082019050919050565b6000613c74602f836143db565b91507f4552433732314d657461646174613a2055524920717565727920666f72206e6f60008301527f6e6578697374656e7420746f6b656e00000000000000000000000000000000006020830152604082019050919050565b6000613cda6021836143db565b91507f4552433732313a20617070726f76616c20746f2063757272656e74206f776e6560008301527f72000000000000000000000000000000000000000000000000000000000000006020830152604082019050919050565b6000613d406031836143db565b91507f4552433732313a207472616e736665722063616c6c6572206973206e6f74206f60008301527f776e6572206e6f7220617070726f7665640000000000000000000000000000006020830152604082019050919050565b6000613da66042836143db565b91507f43616e6e6f7420706572666f726d207468697320616374696f6e206f6e63652060008301527f7468697320636f6e747261637420686173206265656e2072656465706c6f796560208301527f642e0000000000000000000000000000000000000000000000000000000000006040830152606082019050919050565b613e2e816145c9565b82525050565b613e45613e40826145c9565b61471a565b82525050565b613e5c613e57826145d3565b614724565b82525050565b613e6b816145e3565b82525050565b6000613e7d8285613640565b602082019150613e8d828461360b565b6014820191508190509392505050565b6000613ea98287613640565b602082019150613eb982866135e5565b601482019150613ec98285613e34565b602082019150613ed98284613e34565b60208201915081905095945050505050565b6000613ef78287613640565b602082019150613f07828661360b565b601482019150613f178285613e34565b602082019150613f278284613640565b60208201915081905095945050505050565b6000613f4582856136fa565b9150613f5182846136fa565b91508190509392505050565b6000613f6882613bc1565b9150613f7482856136fa565b9150613f808284613690565b91508190509392505050565b6000613f988285613e34565b602082019150613fa88284613e4b565b6004820191508190509392505050565b6000602082019050613fcd60008301846135fc565b92915050565b6000608082019050613fe860008301876135fc565b613ff560208301866135fc565b6140026040830185613e25565b81810360608301526140148184613657565b905095945050505050565b60006020820190506140346000830184613622565b92915050565b600060808201905061404f6000830187613631565b61405c6020830186613e25565b6140696040830185613e25565b818103606083015261407b8184613657565b905095945050505050565b600060808201905061409b6000830187613631565b6140a86020830186613e62565b6140b56040830185613631565b6140c26060830184613631565b95945050505050565b600060208201905081810360008301526140e581846136c1565b905092915050565b600060208201905081810360008301526141068161372b565b9050919050565b6000602082019050818103600083015261412681613791565b9050919050565b60006020820190508181036000830152614146816137f7565b9050919050565b6000602082019050818103600083015261416681613837565b9050919050565b600060208201905081810360008301526141868161389d565b9050919050565b600060208201905081810360008301526141a6816138dd565b9050919050565b600060208201905081810360008301526141c681613943565b9050919050565b600060208201905081810360008301526141e6816139a9565b9050919050565b6000602082019050818103600083015261420681613a0f565b9050919050565b6000602082019050818103600083015261422681613a75565b9050919050565b6000602082019050818103600083015261424681613adb565b9050919050565b6000602082019050818103600083015261426681613b1b565b9050919050565b6000602082019050818103600083015261428681613b81565b9050919050565b600060208201905081810360008301526142a681613c01565b9050919050565b600060208201905081810360008301526142c681613c67565b9050919050565b600060208201905081810360008301526142e681613ccd565b9050919050565b6000602082019050818103600083015261430681613d33565b9050919050565b6000602082019050818103600083015261432681613d99565b9050919050565b60006020820190506143426000830184613e25565b92915050565b6000604051905081810181811067ffffffffffffffff8211171561436f5761436e6147f4565b5b8060405250919050565b600067ffffffffffffffff821115614394576143936147f4565b5b601f19601f8301169050602081019050919050565b600081519050919050565b600081519050919050565b600082825260208201905092915050565b600081905092915050565b600082825260208201905092915050565b600081905092915050565b6000614402826145c9565b915061440d836145c9565b9250827fffffffffffffffffffffffffffffffffffffffffffffffffffffffffffffffff0382111561444257614441614767565b5b828201905092915050565b6000614458826145e3565b9150614463836145e3565b92508260ff0382111561447957614478614767565b5b828201905092915050565b600061448f826145c9565b915061449a836145c9565b9250826144aa576144a9614796565b5b828204905092915050565b60006144c0826145c9565b91506144cb836145c9565b9250817fffffffffffffffffffffffffffffffffffffffffffffffffffffffffffffffff048311821515161561450457614503614767565b5b828202905092915050565b600061451a826145c9565b9150614525836145c9565b92508282101561453857614537614767565b5b828203905092915050565b600061454e826145a9565b9050919050565b6000614560826145a9565b9050919050565b60008115159050919050565b6000819050919050565b60007fffffffff0000000000000000000000000000000000000000000000000000000082169050919050565b600073ffffffffffffffffffffffffffffffffffffffff82169050919050565b6000819050919050565b600063ffffffff82169050919050565b600060ff82169050919050565b82818337600083830152505050565b60005b8381101561461d578082015181840152602081019050614602565b8381111561462c576000848401525b50505050565b6000600282049050600182168061464a57607f821691505b6020821081141561465e5761465d6147c5565b5b50919050565b600061466f826145c9565b91507fffffffffffffffffffffffffffffffffffffffffffffffffffffffffffffffff8214156146a2576146a1614767565b5b600182019050919050565b60006146b8826145d3565b915063ffffffff8214156146cf576146ce614767565b5b600182019050919050565b60006146e582614708565b9050919050565b60006146f782614708565b9050919050565b6000819050919050565b600061471382614841565b9050919050565b6000819050919050565b600061472f82614834565b9050919050565b6000614741826145c9565b915061474c836145c9565b92508261475c5761475b614796565b5b828206905092915050565b7f4e487b7100000000000000000000000000000000000000000000000000000000600052601160045260246000fd5b7f4e487b7100000000000000000000000000000000000000000000000000000000600052601260045260246000fd5b7f4e487b7100000000000000000000000000000000000000000000000000000000600052602260045260246000fd5b7f4e487b7100000000000000000000000000000000000000000000000000000000600052604160045260246000fd5b6000601f19601f8301169050919050565b60008160e01b9050919050565b60008160601b9050919050565b61485781614543565b811461486257600080fd5b50565b61486e81614555565b811461487957600080fd5b50565b61488581614567565b811461489057600080fd5b50565b61489c81614573565b81146148a757600080fd5b50565b6148b38161457d565b81146148be57600080fd5b50565b6148ca816145c9565b81146148d557600080fd5b50565b6148e1816145d3565b81146148ec57600080fd5b5056fea26469706673582212200515c7c7af71760d167a11e5a9b413e644aaa4bc3ed308a8d0b8a1bbb4296dcb64736f6c63430008000033",
    "linkReferences": {},
    "deployedLinkReferences": {}
}